{
  "contractName": "CallOption",
  "abi": [
    {
      "inputs": [
        {
          "internalType": "uint256",
          "name": "_quantity",
          "type": "uint256"
        },
        {
          "internalType": "uint256",
          "name": "_strikePrice",
          "type": "uint256"
        },
        {
          "internalType": "uint256",
          "name": "_purchasePrice",
          "type": "uint256"
        },
        {
          "internalType": "uint256",
          "name": "_expiryTime",
          "type": "uint256"
        },
        {
          "internalType": "address",
          "name": "_tokenContractAddress",
          "type": "address"
        }
      ],
      "stateMutability": "nonpayable",
      "type": "constructor"
    },
    {
      "anonymous": false,
      "inputs": [
        {
          "indexed": true,
          "internalType": "address",
          "name": "previousOwner",
          "type": "address"
        },
        {
          "indexed": true,
          "internalType": "address",
          "name": "newOwner",
          "type": "address"
        }
      ],
      "name": "OwnershipTransferred",
      "type": "event"
    },
    {
      "anonymous": false,
      "inputs": [
        {
          "indexed": true,
          "internalType": "address",
          "name": "_by",
          "type": "address"
        },
        {
          "indexed": false,
          "internalType": "uint256",
          "name": "_time",
          "type": "uint256"
        }
      ],
      "name": "optionExecuted",
      "type": "event"
    },
    {
      "anonymous": false,
      "inputs": [
        {
          "indexed": true,
          "internalType": "address",
          "name": "_from",
          "type": "address"
        },
        {
          "indexed": true,
          "internalType": "address",
          "name": "_by",
          "type": "address"
        },
        {
          "indexed": false,
          "internalType": "uint256",
          "name": "_time",
          "type": "uint256"
        }
      ],
      "name": "optionPurchased",
      "type": "event"
    },
    {
      "stateMutability": "payable",
      "type": "fallback"
    },
    {
      "inputs": [],
      "name": "owner",
      "outputs": [
        {
          "internalType": "address",
          "name": "",
          "type": "address"
        }
      ],
      "stateMutability": "view",
      "type": "function"
    },
    {
      "inputs": [],
      "name": "renounceOwnership",
      "outputs": [],
      "stateMutability": "nonpayable",
      "type": "function"
    },
    {
      "inputs": [
        {
          "internalType": "address",
          "name": "newOwner",
          "type": "address"
        }
      ],
      "name": "transferOwnership",
      "outputs": [],
      "stateMutability": "nonpayable",
      "type": "function"
    },
    {
      "stateMutability": "payable",
      "type": "receive"
    },
    {
      "inputs": [],
      "name": "getOptionConditions",
      "outputs": [
        {
          "internalType": "uint256",
          "name": "_quantity",
          "type": "uint256"
        },
        {
          "internalType": "uint256",
          "name": "_strikePrice",
          "type": "uint256"
        },
        {
          "internalType": "uint256",
          "name": "_purchasePrice",
          "type": "uint256"
        },
        {
          "internalType": "uint256",
          "name": "_expiryTime",
          "type": "uint256"
        },
        {
          "internalType": "bool",
          "name": "_tokenTransfered",
          "type": "bool"
        },
        {
          "internalType": "bool",
          "name": "_wasPurchased",
          "type": "bool"
        },
        {
          "internalType": "bytes32",
          "name": "_optionType",
          "type": "bytes32"
        },
        {
          "internalType": "address",
          "name": "_tokenContractAddress",
          "type": "address"
        }
      ],
      "stateMutability": "view",
      "type": "function"
    },
    {
      "inputs": [],
      "name": "purchase",
      "outputs": [],
      "stateMutability": "payable",
      "type": "function"
    },
    {
      "inputs": [],
      "name": "execute",
      "outputs": [],
      "stateMutability": "payable",
      "type": "function"
    },
    {
      "inputs": [],
      "name": "refund",
      "outputs": [],
      "stateMutability": "nonpayable",
      "type": "function"
    },
    {
      "inputs": [],
      "name": "getBuyer",
      "outputs": [
        {
          "internalType": "address",
          "name": "",
          "type": "address"
        }
      ],
      "stateMutability": "view",
      "type": "function"
    }
  ],
  "bytecode": "0x6101206040523480156200001257600080fd5b50604051620018ca380380620018ca833981810160405281019062000038919062000221565b62000049336200012f60201b60201c565b84608081815250508360a081815250508260c081815250508160e081815250508073ffffffffffffffffffffffffffffffffffffffff166101008173ffffffffffffffffffffffffffffffffffffffff1660601b8152505080600260006101000a81548173ffffffffffffffffffffffffffffffffffffffff021916908373ffffffffffffffffffffffffffffffffffffffff1602179055506000600260146101000a81548160ff0219169083151502179055507f63616c6c00000000000000000000000000000000000000000000000000000000600381905550505050505062000320565b60008060009054906101000a900473ffffffffffffffffffffffffffffffffffffffff169050816000806101000a81548173ffffffffffffffffffffffffffffffffffffffff021916908373ffffffffffffffffffffffffffffffffffffffff1602179055508173ffffffffffffffffffffffffffffffffffffffff168173ffffffffffffffffffffffffffffffffffffffff167f8be0079c531659141344cd1fd0a4f28419497f9722a3daafe3b4186f6b6457e060405160405180910390a35050565b6000815190506200020481620002ec565b92915050565b6000815190506200021b8162000306565b92915050565b600080600080600060a0868803121562000240576200023f620002e7565b5b600062000250888289016200020a565b955050602062000263888289016200020a565b945050604062000276888289016200020a565b935050606062000289888289016200020a565b92505060806200029c88828901620001f3565b9150509295509295909350565b6000620002b682620002bd565b9050919050565b600073ffffffffffffffffffffffffffffffffffffffff82169050919050565b6000819050919050565b600080fd5b620002f781620002a9565b81146200030357600080fd5b50565b6200031181620002dd565b81146200031d57600080fd5b50565b60805160a05160c05160e0516101005160601c611523620003a76000396000610abc0152600081816102070152818161046a0152610a870152600081816108150152610a660152600081816104ed0152610a450152600081816102b0015281816104cc015281816105ba015281816107090152818161094d0152610a2401526115236000f3fe60806040526004361061007f5760003560e01c80636dd62d261161004e5780636dd62d26146100de578063715018a6146101105780638da5cb5b14610127578063f2fde38b1461015257610086565b8063590e1ae314610088578063603daf9a1461009f57806361461954146100ca57806364edfbf0146100d457610086565b3661008657005b005b34801561009457600080fd5b5061009d61017b565b005b3480156100ab57600080fd5b506100b461035f565b6040516100c19190610fb4565b60405180910390f35b6100d2610389565b005b6100dc6106b7565b005b3480156100ea57600080fd5b506100f361093f565b604051610107989796959493929190611153565b60405180910390f35b34801561011c57600080fd5b50610125610af5565b005b34801561013357600080fd5b5061013c610b76565b6040516101499190610fb4565b60405180910390f35b34801561015e57600080fd5b5061017960048036038101906101749190610d93565b610b9f565b005b3373ffffffffffffffffffffffffffffffffffffffff1661019a610b76565b73ffffffffffffffffffffffffffffffffffffffff16146101f0576040517f08c379a00000000000000000000000000000000000000000000000000000000081526004016101e790611078565b60405180910390fd5b600260149054906101000a900460ff1615610268577f00000000000000000000000000000000000000000000000000000000000000004211610267576040517f08c379a000000000000000000000000000000000000000000000000000000000815260040161025e90611118565b60405180910390fd5b5b600260009054906101000a900473ffffffffffffffffffffffffffffffffffffffff1673ffffffffffffffffffffffffffffffffffffffff1663a9059cbb6102ae610b76565b7f00000000000000000000000000000000000000000000000000000000000000006040518363ffffffff1660e01b81526004016102ec929190610fcf565b602060405180830381600087803b15801561030657600080fd5b505af115801561031a573d6000803e3d6000fd5b505050506040513d601f19601f8201168201806040525081019061033e9190610dc0565b50610347610b76565b73ffffffffffffffffffffffffffffffffffffffff16ff5b6000600160009054906101000a900473ffffffffffffffffffffffffffffffffffffffff16905090565b600260149054906101000a900460ff166103d8576040517f08c379a00000000000000000000000000000000000000000000000000000000081526004016103cf90611098565b60405180910390fd5b600160009054906101000a900473ffffffffffffffffffffffffffffffffffffffff1673ffffffffffffffffffffffffffffffffffffffff163373ffffffffffffffffffffffffffffffffffffffff1614610468576040517f08c379a000000000000000000000000000000000000000000000000000000000815260040161045f90611058565b60405180910390fd5b7f000000000000000000000000000000000000000000000000000000000000000042106104ca576040517f08c379a00000000000000000000000000000000000000000000000000000000081526004016104c1906110f8565b60405180910390fd5b7f00000000000000000000000000000000000000000000000000000000000000007f000000000000000000000000000000000000000000000000000000000000000061051691906111e2565b3414610557576040517f08c379a000000000000000000000000000000000000000000000000000000000815260040161054e90611038565b60405180910390fd5b600260009054906101000a900473ffffffffffffffffffffffffffffffffffffffff1673ffffffffffffffffffffffffffffffffffffffff1663a9059cbb600160009054906101000a900473ffffffffffffffffffffffffffffffffffffffff167f00000000000000000000000000000000000000000000000000000000000000006040518363ffffffff1660e01b81526004016105f6929190610fcf565b602060405180830381600087803b15801561061057600080fd5b505af1158015610624573d6000803e3d6000fd5b505050506040513d601f19601f820116820180604052508101906106489190610dc0565b503373ffffffffffffffffffffffffffffffffffffffff167faea8f355600f3be5583ea20692a33eaf6b7314208d1670b0a0b81773cf902db44260405161068f9190611138565b60405180910390a261069f610b76565b73ffffffffffffffffffffffffffffffffffffffff16ff5b600260149054906101000a900460ff1615610707576040517f08c379a00000000000000000000000000000000000000000000000000000000081526004016106fe906110d8565b60405180910390fd5b7f0000000000000000000000000000000000000000000000000000000000000000600260009054906101000a900473ffffffffffffffffffffffffffffffffffffffff1673ffffffffffffffffffffffffffffffffffffffff166370a08231306040518263ffffffff1660e01b81526004016107839190610fb4565b60206040518083038186803b15801561079b57600080fd5b505afa1580156107af573d6000803e3d6000fd5b505050506040513d601f19601f820116820180604052508101906107d39190610ded565b14610813576040517f08c379a000000000000000000000000000000000000000000000000000000000815260040161080a90611018565b60405180910390fd5b7f00000000000000000000000000000000000000000000000000000000000000003414610875576040517f08c379a000000000000000000000000000000000000000000000000000000000815260040161086c90610ff8565b60405180910390fd5b33600160006101000a81548173ffffffffffffffffffffffffffffffffffffffff021916908373ffffffffffffffffffffffffffffffffffffffff1602179055506001600260146101000a81548160ff0219169083151502179055503373ffffffffffffffffffffffffffffffffffffffff166108f0610b76565b73ffffffffffffffffffffffffffffffffffffffff167f5e3aefaecafb6a4e6bb53524f68c3454889ad21a6398311995486cef5780e4e3426040516109359190611138565b60405180910390a3565b6000806000806000806000807f0000000000000000000000000000000000000000000000000000000000000000600260009054906101000a900473ffffffffffffffffffffffffffffffffffffffff1673ffffffffffffffffffffffffffffffffffffffff166370a08231306040518263ffffffff1660e01b81526004016109c79190610fb4565b60206040518083038186803b1580156109df57600080fd5b505afa1580156109f3573d6000803e3d6000fd5b505050506040513d601f19601f82011682018060405250810190610a179190610ded565b1415610a2257600193505b7f00000000000000000000000000000000000000000000000000000000000000007f00000000000000000000000000000000000000000000000000000000000000007f00000000000000000000000000000000000000000000000000000000000000007f000000000000000000000000000000000000000000000000000000000000000087600260149054906101000a900460ff166003547f0000000000000000000000000000000000000000000000000000000000000000975097509750975097509750975097509091929394959697565b3373ffffffffffffffffffffffffffffffffffffffff16610b14610b76565b73ffffffffffffffffffffffffffffffffffffffff1614610b6a576040517f08c379a0000000000000000000000000000000000000000000000000000000008152600401610b6190611078565b60405180910390fd5b610b746000610c90565b565b60008060009054906101000a900473ffffffffffffffffffffffffffffffffffffffff16905090565b3373ffffffffffffffffffffffffffffffffffffffff16610bbe610b76565b73ffffffffffffffffffffffffffffffffffffffff1614610c14576040517f08c379a0000000000000000000000000000000000000000000000000000000008152600401610c0b90611078565b60405180910390fd5b600073ffffffffffffffffffffffffffffffffffffffff168173ffffffffffffffffffffffffffffffffffffffff161415610c84576040517f08c379a0000000000000000000000000000000000000000000000000000000008152600401610c7b906110b8565b60405180910390fd5b610c8d81610c90565b50565b60008060009054906101000a900473ffffffffffffffffffffffffffffffffffffffff169050816000806101000a81548173ffffffffffffffffffffffffffffffffffffffff021916908373ffffffffffffffffffffffffffffffffffffffff1602179055508173ffffffffffffffffffffffffffffffffffffffff168173ffffffffffffffffffffffffffffffffffffffff167f8be0079c531659141344cd1fd0a4f28419497f9722a3daafe3b4186f6b6457e060405160405180910390a35050565b600081359050610d63816114a8565b92915050565b600081519050610d78816114bf565b92915050565b600081519050610d8d816114d6565b92915050565b600060208284031215610da957610da86112bd565b5b6000610db784828501610d54565b91505092915050565b600060208284031215610dd657610dd56112bd565b5b6000610de484828501610d69565b91505092915050565b600060208284031215610e0357610e026112bd565b5b6000610e1184828501610d7e565b91505092915050565b610e238161123c565b82525050565b610e328161124e565b82525050565b610e418161125a565b82525050565b6000610e546018836111d1565b9150610e5f826112c2565b602082019050919050565b6000610e776020836111d1565b9150610e82826112eb565b602082019050919050565b6000610e9a600d836111d1565b9150610ea582611314565b602082019050919050565b6000610ebd602c836111d1565b9150610ec88261133d565b604082019050919050565b6000610ee06015836111d1565b9150610eeb8261138c565b602082019050919050565b6000610f036015836111d1565b9150610f0e826113b5565b602082019050919050565b6000610f26601d836111d1565b9150610f31826113de565b602082019050919050565b6000610f49601b836111d1565b9150610f5482611407565b602082019050919050565b6000610f6c6011836111d1565b9150610f7782611430565b602082019050919050565b6000610f8f6023836111d1565b9150610f9a82611459565b604082019050919050565b610fae81611284565b82525050565b6000602082019050610fc96000830184610e1a565b92915050565b6000604082019050610fe46000830185610e1a565b610ff16020830184610fa5565b9392505050565b6000602082019050818103600083015261101181610e47565b9050919050565b6000602082019050818103600083015261103181610e6a565b9050919050565b6000602082019050818103600083015261105181610e8d565b9050919050565b6000602082019050818103600083015261107181610eb0565b9050919050565b6000602082019050818103600083015261109181610ed3565b9050919050565b600060208201905081810360008301526110b181610ef6565b9050919050565b600060208201905081810360008301526110d181610f19565b9050919050565b600060208201905081810360008301526110f181610f3c565b9050919050565b6000602082019050818103600083015261111181610f5f565b9050919050565b6000602082019050818103600083015261113181610f82565b9050919050565b600060208201905061114d6000830184610fa5565b92915050565b600061010082019050611169600083018b610fa5565b611176602083018a610fa5565b6111836040830189610fa5565b6111906060830188610fa5565b61119d6080830187610e29565b6111aa60a0830186610e29565b6111b760c0830185610e38565b6111c460e0830184610e1a565b9998505050505050505050565b600082825260208201905092915050565b60006111ed82611284565b91506111f883611284565b9250817fffffffffffffffffffffffffffffffffffffffffffffffffffffffffffffffff04831182151516156112315761123061128e565b5b828202905092915050565b600061124782611264565b9050919050565b60008115159050919050565b6000819050919050565b600073ffffffffffffffffffffffffffffffffffffffff82169050919050565b6000819050919050565b7f4e487b7100000000000000000000000000000000000000000000000000000000600052601160045260246000fd5b600080fd5b7f496e636f72726563742070757263686173652070726963650000000000000000600082015250565b7f4f7074696f6e206973206e6f7420636f6c6c61746572616c697a656420796574600082015250565b7f5061796d656e74206572726f7200000000000000000000000000000000000000600082015250565b7f596f752061726520756e617574686f72697a656420666f7220746865206f707460008201527f696f6e20636f6e74726163740000000000000000000000000000000000000000602082015250565b7f596f7520617265206e6f7420746865204f776e65720000000000000000000000600082015250565b7f4f7074696f6e20697320756e7075726368617365640000000000000000000000600082015250565b7f4e6577206f776e657220697320746865207a65726f2061646472657373000000600082015250565b7f4f7074696f6e20697320616c7265616479207075726368617365640000000000600082015250565b7f4f7074696f6e2069732045787069726564000000000000000000000000000000600082015250565b7f4f7074696f6e20636f6e747261637420686173206e6f7420657870697265642060008201527f7965740000000000000000000000000000000000000000000000000000000000602082015250565b6114b18161123c565b81146114bc57600080fd5b50565b6114c88161124e565b81146114d357600080fd5b50565b6114df81611284565b81146114ea57600080fd5b5056fea2646970667358221220a9d84c8022914f5b0ae790240f56ad78460a204a316337d1b97a484afbb8608864736f6c63430008060033",
  "immutableReferences": {
    "27": [
      {
        "length": 32,
        "start": 688
      },
      {
        "length": 32,
        "start": 1228
      },
      {
        "length": 32,
        "start": 1466
      },
      {
        "length": 32,
        "start": 1801
      },
      {
        "length": 32,
        "start": 2381
      },
      {
        "length": 32,
        "start": 2596
      }
    ],
    "29": [
      {
        "length": 32,
        "start": 1261
      },
      {
        "length": 32,
        "start": 2629
      }
    ],
    "31": [
      {
        "length": 32,
        "start": 2069
      },
      {
        "length": 32,
        "start": 2662
      }
    ],
    "33": [
      {
        "length": 32,
        "start": 519
      },
      {
        "length": 32,
        "start": 1130
      },
      {
        "length": 32,
        "start": 2695
      }
    ],
    "35": [
      {
        "length": 32,
        "start": 2748
      }
    ]
  },
  "source": "// SPDX-License-Identifier: UNLICENSED\r\n// This contract is the sample contract for the covered collateralized call option (American style) with physical settlement\r\n// for any ERC20 Token. The contract has not gone through the security audit, therefore use at your own risk.\r\n\r\npragma solidity > 0.8.0 <0.9.0;\r\n\r\nimport \"./Ownable.sol\";\r\n\r\nabstract contract ERC20Token {\r\n    \r\n    function balanceOf(address account) external view returns (uint256){\r\n    }\r\n    function transfer(address recipient, uint256 amount) external returns (bool){\r\n    }\r\n    \r\n} \r\n\r\ncontract CallOption is Ownable {\r\n    \r\n    // Address of the Buyer of the Call option\r\n    address private buyer;\r\n    // Quantity of the tokens at stake in the option contract\r\n    uint private immutable quantity; \r\n    // Strike price of the call option in Wei/Token\r\n    uint private immutable strikePrice;\r\n    // Purchase price of the call option contract in Wei\r\n    uint private immutable purchasePrice;\r\n    // Expiry time of the option\r\n    uint private immutable expiryTime;\r\n    // Contract Address of the ERC20 Token (can be any ERC20 token, for the purposes of testing CleverWizardToken in the folder can be used)\r\n    address private immutable tokenContractAddress;\r\n    // ERC20 Token's instance in the contract\r\n    ERC20Token private Token;\r\n    // Boolean for whether the contract has been purchased by any buyer or not\r\n    bool private wasPurchased;\r\n    //Whether option is Call or Put\r\n    bytes32 private optionType; \r\n    \r\n    event optionPurchased(address indexed _from, address indexed _by, uint256 _time);\r\n    event optionExecuted(address indexed _by, uint256 _time);\r\n\r\n\r\n    constructor(uint _quantity, uint _strikePrice, uint _purchasePrice, uint _expiryTime, address _tokenContractAddress) Ownable() {\r\n        quantity = _quantity;\r\n        strikePrice = _strikePrice;\r\n        purchasePrice = _purchasePrice;\r\n        expiryTime = _expiryTime;\r\n        tokenContractAddress = _tokenContractAddress;\r\n        Token = ERC20Token(_tokenContractAddress);\r\n        wasPurchased = false;\r\n        optionType = \"call\";\r\n    }\r\n    \r\n    // Returns all the terms of the Call option contract\r\n    function getOptionConditions() public view returns(uint _quantity, uint _strikePrice, uint _purchasePrice, uint _expiryTime, bool _tokenTransfered, bool _wasPurchased, bytes32 _optionType, address _tokenContractAddress){\r\n        if(Token.balanceOf(address(this)) == quantity){\r\n            _tokenTransfered = true;   \r\n        }\r\n        return (quantity, strikePrice, purchasePrice, expiryTime, _tokenTransfered, wasPurchased, optionType, tokenContractAddress);\r\n    }\r\n    \r\n    // Allows the Buyer of the contract to buy the option contract.\r\n    // For convenience the buyer can be from any address. If needed, the function can be modified to serve a specific buyer's address.\r\n    // Note: The buyer cannot buy the option contract unless the owner of the contract first collaterlizes it with tokens.\r\n    function purchase() public payable {\r\n        require(!wasPurchased, \"Option is already purchased\");\r\n        require(Token.balanceOf(address(this)) == quantity, \"Option is not collateralized yet\");\r\n        require(msg.value == purchasePrice, \"Incorrect purchase price\");\r\n        buyer = msg.sender;\r\n        wasPurchased = true;\r\n        emit optionPurchased(owner(), msg.sender, block.timestamp);\r\n    }\r\n\r\n    // Allows the buyer to execute the option contract at any time before the Option contract.\r\n    function execute() public payable {\r\n        require(wasPurchased, \"Option is unpurchased\");\r\n        require(msg.sender == buyer, \"You are unauthorized for the option contract\");   \r\n        require(block.timestamp < expiryTime, \"Option is Expired\");\r\n        require(msg.value == strikePrice*quantity, \"Payment error\");\r\n        Token.transfer(buyer, quantity);\r\n        emit optionExecuted(msg.sender, block.timestamp);\r\n        selfdestruct(payable(owner()));\r\n    }\r\n    \r\n    //Refunds and sends the funds back to the Owner of the contract.\r\n    //Can not refund if it was purchased before the contract has expired\r\n    function refund() public onlyOwner {\r\n        if(wasPurchased) {\r\n            require(block.timestamp > expiryTime, \"Option contract has not expired yet\");\r\n        }\r\n        Token.transfer(owner(), quantity);\r\n        selfdestruct(payable(owner()));\r\n    }\r\n\r\n    function getBuyer() public view returns (address) {\r\n        return buyer;\r\n    }\r\n\r\n     //Contract can accept deposits\r\n    receive() external payable {}\r\n    fallback() external payable {}\r\n}",
  "sourcePath": "C:/Users/abyla/nodeenvs/Options/contracts/CallOption.sol",
  "compiler": {
    "name": "solc",
    "version": "0.8.6+commit.11564f7e.Emscripten.clang"
  },
  "schemaVersion": "3.4.1",
  "updatedAt": "2021-07-13T14:52:32.284Z",
  "devdoc": {
    "kind": "dev",
    "methods": {},
    "version": 1
  },
  "userdoc": {
    "kind": "user",
    "methods": {},
    "version": 1
  }
}