{
  "contractName": "CleverWizardToken",
  "abi": [
    {
      "inputs": [],
      "stateMutability": "nonpayable",
      "type": "constructor"
    },
    {
      "anonymous": false,
      "inputs": [
        {
          "indexed": true,
          "internalType": "address",
          "name": "owner",
          "type": "address"
        },
        {
          "indexed": true,
          "internalType": "address",
          "name": "spender",
          "type": "address"
        },
        {
          "indexed": false,
          "internalType": "uint256",
          "name": "value",
          "type": "uint256"
        }
      ],
      "name": "Approval",
      "type": "event"
    },
    {
      "anonymous": false,
      "inputs": [
        {
          "indexed": true,
          "internalType": "address",
          "name": "from",
          "type": "address"
        },
        {
          "indexed": true,
          "internalType": "address",
          "name": "to",
          "type": "address"
        },
        {
          "indexed": false,
          "internalType": "uint256",
          "name": "value",
          "type": "uint256"
        }
      ],
      "name": "Transfer",
      "type": "event"
    },
    {
      "inputs": [],
      "name": "name",
      "outputs": [
        {
          "internalType": "string",
          "name": "",
          "type": "string"
        }
      ],
      "stateMutability": "view",
      "type": "function",
      "constant": true
    },
    {
      "inputs": [],
      "name": "symbol",
      "outputs": [
        {
          "internalType": "string",
          "name": "",
          "type": "string"
        }
      ],
      "stateMutability": "view",
      "type": "function",
      "constant": true
    },
    {
      "inputs": [],
      "name": "decimals",
      "outputs": [
        {
          "internalType": "uint8",
          "name": "",
          "type": "uint8"
        }
      ],
      "stateMutability": "view",
      "type": "function",
      "constant": true
    },
    {
      "inputs": [],
      "name": "totalSupply",
      "outputs": [
        {
          "internalType": "uint256",
          "name": "",
          "type": "uint256"
        }
      ],
      "stateMutability": "view",
      "type": "function",
      "constant": true
    },
    {
      "inputs": [
        {
          "internalType": "address",
          "name": "account",
          "type": "address"
        }
      ],
      "name": "balanceOf",
      "outputs": [
        {
          "internalType": "uint256",
          "name": "",
          "type": "uint256"
        }
      ],
      "stateMutability": "view",
      "type": "function",
      "constant": true
    },
    {
      "inputs": [
        {
          "internalType": "address",
          "name": "recipient",
          "type": "address"
        },
        {
          "internalType": "uint256",
          "name": "amount",
          "type": "uint256"
        }
      ],
      "name": "transfer",
      "outputs": [
        {
          "internalType": "bool",
          "name": "",
          "type": "bool"
        }
      ],
      "stateMutability": "nonpayable",
      "type": "function"
    },
    {
      "inputs": [
        {
          "internalType": "address",
          "name": "owner",
          "type": "address"
        },
        {
          "internalType": "address",
          "name": "spender",
          "type": "address"
        }
      ],
      "name": "allowance",
      "outputs": [
        {
          "internalType": "uint256",
          "name": "",
          "type": "uint256"
        }
      ],
      "stateMutability": "view",
      "type": "function",
      "constant": true
    },
    {
      "inputs": [
        {
          "internalType": "address",
          "name": "spender",
          "type": "address"
        },
        {
          "internalType": "uint256",
          "name": "amount",
          "type": "uint256"
        }
      ],
      "name": "approve",
      "outputs": [
        {
          "internalType": "bool",
          "name": "",
          "type": "bool"
        }
      ],
      "stateMutability": "nonpayable",
      "type": "function"
    },
    {
      "inputs": [
        {
          "internalType": "address",
          "name": "sender",
          "type": "address"
        },
        {
          "internalType": "address",
          "name": "recipient",
          "type": "address"
        },
        {
          "internalType": "uint256",
          "name": "amount",
          "type": "uint256"
        }
      ],
      "name": "transferFrom",
      "outputs": [
        {
          "internalType": "bool",
          "name": "",
          "type": "bool"
        }
      ],
      "stateMutability": "nonpayable",
      "type": "function"
    },
    {
      "inputs": [
        {
          "internalType": "uint256",
          "name": "amount",
          "type": "uint256"
        }
      ],
      "name": "burn",
      "outputs": [
        {
          "internalType": "bool",
          "name": "",
          "type": "bool"
        }
      ],
      "stateMutability": "nonpayable",
      "type": "function"
    }
  ],
  "bytecode": "0x60806040526298968060025534801561001757600080fd5b506002546000803373ffffffffffffffffffffffffffffffffffffffff1673ffffffffffffffffffffffffffffffffffffffff16815260200190815260200160002081905550610f7e8061006c6000396000f3fe608060405234801561001057600080fd5b506004361061009e5760003560e01c806342966c681161006657806342966c681461015d57806370a082311461018d57806395d89b41146101bd578063a9059cbb146101db578063dd62ed3e1461020b5761009e565b806306fdde03146100a3578063095ea7b3146100c157806318160ddd146100f157806323b872dd1461010f578063313ce5671461013f575b600080fd5b6100ab61023b565b6040516100b89190610bdf565b60405180910390f35b6100db60048036038101906100d69190610a65565b610278565b6040516100e89190610bc4565b60405180910390f35b6100f96103eb565b6040516101069190610c81565b60405180910390f35b61012960048036038101906101249190610a12565b6103f5565b6040516101369190610bc4565b60405180910390f35b61014761055d565b6040516101549190610c9c565b60405180910390f35b61017760048036038101906101729190610aa5565b610566565b6040516101849190610bc4565b60405180910390f35b6101a760048036038101906101a291906109a5565b6106c4565b6040516101b49190610c81565b60405180910390f35b6101c561070c565b6040516101d29190610bdf565b60405180910390f35b6101f560048036038101906101f09190610a65565b610749565b6040516102029190610bc4565b60405180910390f35b610225600480360381019061022091906109d2565b610760565b6040516102329190610c81565b60405180910390f35b60606040518060400160405280601181526020017f436c6576657257697a617264546f6b656e000000000000000000000000000000815250905090565b6000816000803373ffffffffffffffffffffffffffffffffffffffff1673ffffffffffffffffffffffffffffffffffffffff1681526020019081526020016000205410156102fb576040517f08c379a00000000000000000000000000000000000000000000000000000000081526004016102f290610c01565b60405180910390fd5b81600160003373ffffffffffffffffffffffffffffffffffffffff1673ffffffffffffffffffffffffffffffffffffffff16815260200190815260200160002060008573ffffffffffffffffffffffffffffffffffffffff1673ffffffffffffffffffffffffffffffffffffffff168152602001908152602001600020819055508273ffffffffffffffffffffffffffffffffffffffff163373ffffffffffffffffffffffffffffffffffffffff167f8c5be1e5ebec7d5bd14f71427d1e84f3dd0314c0f7b2291e5b200ac8c7c3b925846040516103d99190610c81565b60405180910390a36001905092915050565b6000600254905090565b600080600160008673ffffffffffffffffffffffffffffffffffffffff1673ffffffffffffffffffffffffffffffffffffffff16815260200190815260200160002060003373ffffffffffffffffffffffffffffffffffffffff1673ffffffffffffffffffffffffffffffffffffffff168152602001908152602001600020549050828110156104ba576040517f08c379a00000000000000000000000000000000000000000000000000000000081526004016104b190610c21565b60405180910390fd5b82816104c69190610d29565b600160008773ffffffffffffffffffffffffffffffffffffffff1673ffffffffffffffffffffffffffffffffffffffff16815260200190815260200160002060003373ffffffffffffffffffffffffffffffffffffffff1673ffffffffffffffffffffffffffffffffffffffff168152602001908152602001600020819055506105518585856107e7565b60019150509392505050565b60006001905090565b6000806000803373ffffffffffffffffffffffffffffffffffffffff1673ffffffffffffffffffffffffffffffffffffffff168152602001908152602001600020549050828110156105ed576040517f08c379a00000000000000000000000000000000000000000000000000000000081526004016105e490610c61565b60405180910390fd5b82816105f99190610d29565b6000803373ffffffffffffffffffffffffffffffffffffffff1673ffffffffffffffffffffffffffffffffffffffff16815260200190815260200160002081905550826002600082825461064d9190610d29565b92505081905550600073ffffffffffffffffffffffffffffffffffffffff163373ffffffffffffffffffffffffffffffffffffffff167fddf252ad1be2c89b69c2b068fc378daa952ba7f163c4a11628f55a4df523b3ef856040516106b29190610c81565b60405180910390a36001915050919050565b60008060008373ffffffffffffffffffffffffffffffffffffffff1673ffffffffffffffffffffffffffffffffffffffff168152602001908152602001600020549050919050565b60606040518060400160405280600481526020017f434c575a00000000000000000000000000000000000000000000000000000000815250905090565b60006107563384846107e7565b6001905092915050565b6000600160008473ffffffffffffffffffffffffffffffffffffffff1673ffffffffffffffffffffffffffffffffffffffff16815260200190815260200160002060008373ffffffffffffffffffffffffffffffffffffffff1673ffffffffffffffffffffffffffffffffffffffff16815260200190815260200160002054905092915050565b60008060008573ffffffffffffffffffffffffffffffffffffffff1673ffffffffffffffffffffffffffffffffffffffff1681526020019081526020016000205490508181101561086d576040517f08c379a000000000000000000000000000000000000000000000000000000000815260040161086490610c41565b60405180910390fd5b81816108799190610d29565b6000808673ffffffffffffffffffffffffffffffffffffffff1673ffffffffffffffffffffffffffffffffffffffff16815260200190815260200160002081905550816000808573ffffffffffffffffffffffffffffffffffffffff1673ffffffffffffffffffffffffffffffffffffffff16815260200190815260200160002060008282546109099190610cd3565b925050819055508273ffffffffffffffffffffffffffffffffffffffff168473ffffffffffffffffffffffffffffffffffffffff167fddf252ad1be2c89b69c2b068fc378daa952ba7f163c4a11628f55a4df523b3ef8460405161096d9190610c81565b60405180910390a350505050565b60008135905061098a81610f1a565b92915050565b60008135905061099f81610f31565b92915050565b6000602082840312156109bb576109ba610e14565b5b60006109c98482850161097b565b91505092915050565b600080604083850312156109e9576109e8610e14565b5b60006109f78582860161097b565b9250506020610a088582860161097b565b9150509250929050565b600080600060608486031215610a2b57610a2a610e14565b5b6000610a398682870161097b565b9350506020610a4a8682870161097b565b9250506040610a5b86828701610990565b9150509250925092565b60008060408385031215610a7c57610a7b610e14565b5b6000610a8a8582860161097b565b9250506020610a9b85828601610990565b9150509250929050565b600060208284031215610abb57610aba610e14565b5b6000610ac984828501610990565b91505092915050565b610adb81610d6f565b82525050565b6000610aec82610cb7565b610af68185610cc2565b9350610b06818560208601610db2565b610b0f81610e19565b840191505092915050565b6000610b27602a83610cc2565b9150610b3282610e2a565b604082019050919050565b6000610b4a602183610cc2565b9150610b5582610e79565b604082019050919050565b6000610b6d601f83610cc2565b9150610b7882610ec8565b602082019050919050565b6000610b90601b83610cc2565b9150610b9b82610ef1565b602082019050919050565b610baf81610d9b565b82525050565b610bbe81610da5565b82525050565b6000602082019050610bd96000830184610ad2565b92915050565b60006020820190508181036000830152610bf98184610ae1565b905092915050565b60006020820190508181036000830152610c1a81610b1a565b9050919050565b60006020820190508181036000830152610c3a81610b3d565b9050919050565b60006020820190508181036000830152610c5a81610b60565b9050919050565b60006020820190508181036000830152610c7a81610b83565b9050919050565b6000602082019050610c966000830184610ba6565b92915050565b6000602082019050610cb16000830184610bb5565b92915050565b600081519050919050565b600082825260208201905092915050565b6000610cde82610d9b565b9150610ce983610d9b565b9250827fffffffffffffffffffffffffffffffffffffffffffffffffffffffffffffffff03821115610d1e57610d1d610de5565b5b828201905092915050565b6000610d3482610d9b565b9150610d3f83610d9b565b925082821015610d5257610d51610de5565b5b828203905092915050565b6000610d6882610d7b565b9050919050565b60008115159050919050565b600073ffffffffffffffffffffffffffffffffffffffff82169050919050565b6000819050919050565b600060ff82169050919050565b60005b83811015610dd0578082015181840152602081019050610db5565b83811115610ddf576000848401525b50505050565b7f4e487b7100000000000000000000000000000000000000000000000000000000600052601160045260246000fd5b600080fd5b6000601f19601f8301169050919050565b7f4e6f7420656e6f7567682062616c616e636520746f20617070726f766520666f60008201527f72207370656e64696e6700000000000000000000000000000000000000000000602082015250565b7f5472616e7366657220616d6f756e74206578636565647320616c6c6f77616e6360008201527f6500000000000000000000000000000000000000000000000000000000000000602082015250565b7f5472616e7366657220616d6f756e7420657863656564732062616c616e636500600082015250565b7f4275726e20616d6f756e7420657863656564732062616c616e63650000000000600082015250565b610f2381610d5d565b8114610f2e57600080fd5b50565b610f3a81610d9b565b8114610f4557600080fd5b5056fea2646970667358221220b1352174de9dbb63a3ce96af1adf61ae3e0903e56639ba49022bc4618b85aed464736f6c63430008060033",
  "immutableReferences": {},
  "source": "// SPDX-License-Identifier: UNLICENSED\r\n// This is an example ERC20 Token called CleverWizardToken (CLWZ)\r\n// Apart from the standard and optional functions and parameters, the Token allows its users to burn their tokens.\r\n\r\npragma solidity > 0.8.0 <0.9.0;\r\n\r\n\r\ninterface ERC20 {\r\n    function totalSupply() external view returns (uint256);\r\n    function balanceOf(address account) external view returns (uint256);\r\n    function transfer(address recipient, uint256 amount) external returns (bool);\r\n    function allowance(address owner, address spender) external view returns (uint256);\r\n    function approve(address spender, uint256 amount) external returns (bool);\r\n    function transferFrom(address sender, address recipient, uint256 amount) external returns (bool);\r\n    event Transfer(address indexed from, address indexed to, uint256 value);\r\n    event Approval(address indexed owner, address indexed spender, uint256 value);\r\n    function name() external view returns (string memory);\r\n    function symbol() external view returns (string memory);\r\n    function decimals() external view returns (uint8);\r\n}\r\n\r\ninterface Additional {\r\n    function burn(uint256 amount) external returns (bool);\r\n}\r\n\r\ncontract CleverWizardToken is ERC20, Additional {\r\n\r\n    mapping(address => uint256) private _balances;\r\n\r\n    mapping(address => mapping(address => uint256)) private _allowances;\r\n\r\n    // Total supply is equal to 10 million\r\n    uint256 private _totalSupply = 10000000;\r\n\r\n    string private constant _name = \"CleverWizardToken\";\r\n    string private constant _symbol = \"CLWZ\";\r\n\r\n    constructor() {\r\n        _balances[msg.sender] = _totalSupply;        \r\n    }\r\n\r\n    // Returns the name of the token\r\n    function name() public view virtual override returns (string memory) {\r\n        return _name;\r\n    }\r\n\r\n    //Returns the symbol of the token\r\n    function symbol() public view virtual override returns (string memory) {\r\n        return _symbol;\r\n    }\r\n\r\n    // Returns the number of decimals used to get token's user representation.\r\n    function decimals() public view virtual override returns (uint8) {\r\n        return 1;\r\n    }\r\n\r\n    //Returns total supply of the token\r\n    function totalSupply() public view virtual override returns (uint256) {\r\n        return _totalSupply;\r\n    }\r\n\r\n    //Returns the balance of an address in tokens\r\n    function balanceOf(address account) public view virtual override returns (uint256) {\r\n        return _balances[account];\r\n    }\r\n    \r\n    // Transfers `amount` from the msg.sender to the recepient's address\r\n    // The caller must have a balance of at least `amount`.\r\n    function transfer(address recipient, uint256 amount) public virtual override returns (bool) {\r\n        _transfer(msg.sender, recipient, amount);\r\n        return true;\r\n    }\r\n\r\n    // Shows how much allowance does a spender have given by the owner\r\n    function allowance(address owner, address spender) public view virtual override returns (uint256) {\r\n        return _allowances[owner][spender];\r\n    }\r\n\r\n    // Msg.sender approves 'amount' of tokens for spending to the spender    \r\n    function approve(address spender, uint256 amount) public virtual override returns (bool) {\r\n        require(_balances[msg.sender] >= amount, \"Not enough balance to approve for spending\");\r\n        _allowances[msg.sender][spender] = amount;\r\n        emit Approval(msg.sender, spender, amount);\r\n        return true;\r\n    }\r\n\r\n    //Msg.sender spends his allowance amount from the sender's account to the recient\r\n    function transferFrom(address sender, address recipient, uint256 amount) public virtual override returns (bool) {\r\n        uint256 currentAllowance = _allowances[sender][msg.sender];\r\n        require(currentAllowance >= amount, \"Transfer amount exceeds allowance\");\r\n        _allowances[sender][msg.sender] = currentAllowance - amount;\r\n        _transfer(sender, recipient, amount);\r\n        return true;\r\n    }\r\n\r\n    // Moves `amount` of tokens from `sender` to `recipient`.\r\n    function _transfer(address sender, address recipient, uint256 amount) internal virtual {\r\n        uint256 senderBalance = _balances[sender];\r\n        require(senderBalance >= amount, \"Transfer amount exceeds balance\");\r\n        _balances[sender] = senderBalance - amount;\r\n        _balances[recipient] += amount;\r\n        emit Transfer(sender, recipient, amount);\r\n    }\r\n\r\n    // Destroys `amount` tokens from `account`, reducing the total supply.\r\n    function burn(uint256 amount) external virtual override returns (bool){\r\n        uint256 accountBalance = _balances[msg.sender];\r\n        require(accountBalance >= amount, \"Burn amount exceeds balance\");\r\n        _balances[msg.sender] = accountBalance - amount;\r\n        _totalSupply -= amount;\r\n        emit Transfer(msg.sender, address(0), amount);\r\n        return true;\r\n    }\r\n}",
  "sourcePath": "C:/Users/abyla/nodeenvs/Options/contracts/CleverWizardToken.sol",
  "compiler": {
    "name": "solc",
    "version": "0.8.6+commit.11564f7e.Emscripten.clang"
  },
  "schemaVersion": "3.4.1",
  "updatedAt": "2021-07-13T11:53:08.414Z",
  "networkType": "ethereum",
  "devdoc": {
    "kind": "dev",
    "methods": {},
    "version": 1
  },
  "userdoc": {
    "kind": "user",
    "methods": {},
    "version": 1
  }
}