{
  "contractName": "PutOption",
  "abi": [
    {
      "inputs": [
        {
          "internalType": "uint256",
          "name": "_quantity",
          "type": "uint256"
        },
        {
          "internalType": "uint256",
          "name": "_strikePrice",
          "type": "uint256"
        },
        {
          "internalType": "uint256",
          "name": "_purchasePrice",
          "type": "uint256"
        },
        {
          "internalType": "uint256",
          "name": "_expiryTime",
          "type": "uint256"
        },
        {
          "internalType": "address",
          "name": "_tokenContractAddress",
          "type": "address"
        }
      ],
      "stateMutability": "nonpayable",
      "type": "constructor"
    },
    {
      "anonymous": false,
      "inputs": [
        {
          "indexed": true,
          "internalType": "address",
          "name": "previousOwner",
          "type": "address"
        },
        {
          "indexed": true,
          "internalType": "address",
          "name": "newOwner",
          "type": "address"
        }
      ],
      "name": "OwnershipTransferred",
      "type": "event"
    },
    {
      "anonymous": false,
      "inputs": [
        {
          "indexed": true,
          "internalType": "address",
          "name": "_by",
          "type": "address"
        },
        {
          "indexed": false,
          "internalType": "uint256",
          "name": "_time",
          "type": "uint256"
        }
      ],
      "name": "optionExecuted",
      "type": "event"
    },
    {
      "anonymous": false,
      "inputs": [
        {
          "indexed": true,
          "internalType": "address",
          "name": "_from",
          "type": "address"
        },
        {
          "indexed": true,
          "internalType": "address",
          "name": "_by",
          "type": "address"
        },
        {
          "indexed": false,
          "internalType": "uint256",
          "name": "_time",
          "type": "uint256"
        }
      ],
      "name": "optionPurchased",
      "type": "event"
    },
    {
      "stateMutability": "payable",
      "type": "fallback"
    },
    {
      "inputs": [],
      "name": "owner",
      "outputs": [
        {
          "internalType": "address",
          "name": "",
          "type": "address"
        }
      ],
      "stateMutability": "view",
      "type": "function"
    },
    {
      "inputs": [],
      "name": "renounceOwnership",
      "outputs": [],
      "stateMutability": "nonpayable",
      "type": "function"
    },
    {
      "inputs": [
        {
          "internalType": "address",
          "name": "newOwner",
          "type": "address"
        }
      ],
      "name": "transferOwnership",
      "outputs": [],
      "stateMutability": "nonpayable",
      "type": "function"
    },
    {
      "stateMutability": "payable",
      "type": "receive"
    },
    {
      "inputs": [],
      "name": "getOptionConditions",
      "outputs": [
        {
          "internalType": "uint256",
          "name": "_quantity",
          "type": "uint256"
        },
        {
          "internalType": "uint256",
          "name": "_strikePrice",
          "type": "uint256"
        },
        {
          "internalType": "uint256",
          "name": "_purchasePrice",
          "type": "uint256"
        },
        {
          "internalType": "uint256",
          "name": "_expiryTime",
          "type": "uint256"
        },
        {
          "internalType": "bool",
          "name": "_wasCollateralized",
          "type": "bool"
        },
        {
          "internalType": "bool",
          "name": "_wasPurchased",
          "type": "bool"
        },
        {
          "internalType": "bytes32",
          "name": "_optionType",
          "type": "bytes32"
        },
        {
          "internalType": "address",
          "name": "_tokenContractAddress",
          "type": "address"
        }
      ],
      "stateMutability": "view",
      "type": "function"
    },
    {
      "inputs": [],
      "name": "collateralize",
      "outputs": [],
      "stateMutability": "payable",
      "type": "function"
    },
    {
      "inputs": [],
      "name": "purchase",
      "outputs": [],
      "stateMutability": "payable",
      "type": "function"
    },
    {
      "inputs": [],
      "name": "execute",
      "outputs": [],
      "stateMutability": "nonpayable",
      "type": "function"
    },
    {
      "inputs": [],
      "name": "refund",
      "outputs": [],
      "stateMutability": "nonpayable",
      "type": "function"
    },
    {
      "inputs": [],
      "name": "getBuyer",
      "outputs": [
        {
          "internalType": "address",
          "name": "",
          "type": "address"
        }
      ],
      "stateMutability": "view",
      "type": "function"
    }
  ],
  "bytecode": "0x6101206040523480156200001257600080fd5b50604051620019bc380380620019bc83398181016040528101906200003891906200023c565b62000049336200014a60201b60201c565b84608081815250508360a081815250508260c081815250508160e081815250508073ffffffffffffffffffffffffffffffffffffffff166101008173ffffffffffffffffffffffffffffffffffffffff1660601b8152505080600260006101000a81548173ffffffffffffffffffffffffffffffffffffffff021916908373ffffffffffffffffffffffffffffffffffffffff1602179055506000600260146101000a81548160ff0219169083151502179055506000600260156101000a81548160ff0219169083151502179055507f707574000000000000000000000000000000000000000000000000000000000060038190555050505050506200033b565b60008060009054906101000a900473ffffffffffffffffffffffffffffffffffffffff169050816000806101000a81548173ffffffffffffffffffffffffffffffffffffffff021916908373ffffffffffffffffffffffffffffffffffffffff1602179055508173ffffffffffffffffffffffffffffffffffffffff168173ffffffffffffffffffffffffffffffffffffffff167f8be0079c531659141344cd1fd0a4f28419497f9722a3daafe3b4186f6b6457e060405160405180910390a35050565b6000815190506200021f8162000307565b92915050565b600081519050620002368162000321565b92915050565b600080600080600060a086880312156200025b576200025a62000302565b5b60006200026b8882890162000225565b95505060206200027e8882890162000225565b9450506040620002918882890162000225565b9350506060620002a48882890162000225565b9250506080620002b7888289016200020e565b9150509295509295909350565b6000620002d182620002d8565b9050919050565b600073ffffffffffffffffffffffffffffffffffffffff82169050919050565b6000819050919050565b600080fd5b6200031281620002c4565b81146200031e57600080fd5b50565b6200032c81620002f8565b81146200033857600080fd5b50565b60805160a05160c05160e0516101005160601c6115fa620003c260003960006109bc015260008181610229015281816103d001526109780152600081816107dd0152610957015260008181610651015281816109360152610b160152600081816104320152818161058401528181610672015281816109150152610b3701526115fa6000f3fe60806040526004361061008a5760003560e01c80636dd62d26116100595780636dd62d26146100f6578063715018a6146101285780638da5cb5b1461013f578063eef9a8d51461016a578063f2fde38b1461017457610091565b8063590e1ae314610093578063603daf9a146100aa57806361461954146100d557806364edfbf0146100ec57610091565b3661009157005b005b34801561009f57600080fd5b506100a861019d565b005b3480156100b657600080fd5b506100bf6102c5565b6040516100cc9190610ff6565b60405180910390f35b3480156100e157600080fd5b506100ea6102ef565b005b6100f4610735565b005b34801561010257600080fd5b5061010b610907565b60405161011f9897969594939291906111b5565b60405180910390f35b34801561013457600080fd5b5061013d6109f5565b005b34801561014b57600080fd5b50610154610a76565b6040516101619190610ff6565b60405180910390f35b610172610a9f565b005b34801561018057600080fd5b5061019b60048036038101906101969190610db2565b610bbe565b005b3373ffffffffffffffffffffffffffffffffffffffff166101bc610a76565b73ffffffffffffffffffffffffffffffffffffffff1614610212576040517f08c379a0000000000000000000000000000000000000000000000000000000008152600401610209906110ba565b60405180910390fd5b600260149054906101000a900460ff161561028a577f00000000000000000000000000000000000000000000000000000000000000004211610289576040517f08c379a00000000000000000000000000000000000000000000000000000000081526004016102809061117a565b60405180910390fd5b5b6000600260156101000a81548160ff0219169083151502179055506102ad610a76565b73ffffffffffffffffffffffffffffffffffffffff16ff5b6000600160009054906101000a900473ffffffffffffffffffffffffffffffffffffffff16905090565b600260149054906101000a900460ff1661033e576040517f08c379a0000000000000000000000000000000000000000000000000000000008152600401610335906110da565b60405180910390fd5b600160009054906101000a900473ffffffffffffffffffffffffffffffffffffffff1673ffffffffffffffffffffffffffffffffffffffff163373ffffffffffffffffffffffffffffffffffffffff16146103ce576040517f08c379a00000000000000000000000000000000000000000000000000000000081526004016103c59061109a565b60405180910390fd5b7f00000000000000000000000000000000000000000000000000000000000000004210610430576040517f08c379a00000000000000000000000000000000000000000000000000000000081526004016104279061113a565b60405180910390fd5b7f0000000000000000000000000000000000000000000000000000000000000000600260009054906101000a900473ffffffffffffffffffffffffffffffffffffffff1673ffffffffffffffffffffffffffffffffffffffff166370a08231306040518263ffffffff1660e01b81526004016104ac9190610ff6565b60206040518083038186803b1580156104c457600080fd5b505afa1580156104d8573d6000803e3d6000fd5b505050506040513d601f19601f820116820180604052508101906104fc9190610e0c565b1461053c576040517f08c379a00000000000000000000000000000000000000000000000000000000081526004016105339061107a565b60405180910390fd5b600260009054906101000a900473ffffffffffffffffffffffffffffffffffffffff1673ffffffffffffffffffffffffffffffffffffffff1663a9059cbb610582610a76565b7f00000000000000000000000000000000000000000000000000000000000000006040518363ffffffff1660e01b81526004016105c0929190611011565b602060405180830381600087803b1580156105da57600080fd5b505af11580156105ee573d6000803e3d6000fd5b505050506040513d601f19601f820116820180604052508101906106129190610ddf565b50600160009054906101000a900473ffffffffffffffffffffffffffffffffffffffff1673ffffffffffffffffffffffffffffffffffffffff166108fc7f00000000000000000000000000000000000000000000000000000000000000007f000000000000000000000000000000000000000000000000000000000000000061069b9190611244565b9081150290604051600060405180830381858888f193505050501580156106c6573d6000803e3d6000fd5b503373ffffffffffffffffffffffffffffffffffffffff167faea8f355600f3be5583ea20692a33eaf6b7314208d1670b0a0b81773cf902db44260405161070d919061119a565b60405180910390a261071d610a76565b73ffffffffffffffffffffffffffffffffffffffff16ff5b600260149054906101000a900460ff1615610785576040517f08c379a000000000000000000000000000000000000000000000000000000000815260040161077c9061111a565b60405180910390fd5b60011515600260159054906101000a900460ff161515146107db576040517f08c379a00000000000000000000000000000000000000000000000000000000081526004016107d29061105a565b60405180910390fd5b7f0000000000000000000000000000000000000000000000000000000000000000341461083d576040517f08c379a00000000000000000000000000000000000000000000000000000000081526004016108349061103a565b60405180910390fd5b33600160006101000a81548173ffffffffffffffffffffffffffffffffffffffff021916908373ffffffffffffffffffffffffffffffffffffffff1602179055506001600260146101000a81548160ff0219169083151502179055503373ffffffffffffffffffffffffffffffffffffffff166108b8610a76565b73ffffffffffffffffffffffffffffffffffffffff167f5e3aefaecafb6a4e6bb53524f68c3454889ad21a6398311995486cef5780e4e3426040516108fd919061119a565b60405180910390a3565b6000806000806000806000807f00000000000000000000000000000000000000000000000000000000000000007f00000000000000000000000000000000000000000000000000000000000000007f00000000000000000000000000000000000000000000000000000000000000007f0000000000000000000000000000000000000000000000000000000000000000600260159054906101000a900460ff16600260149054906101000a900460ff166003547f0000000000000000000000000000000000000000000000000000000000000000975097509750975097509750975097509091929394959697565b3373ffffffffffffffffffffffffffffffffffffffff16610a14610a76565b73ffffffffffffffffffffffffffffffffffffffff1614610a6a576040517f08c379a0000000000000000000000000000000000000000000000000000000008152600401610a61906110ba565b60405180910390fd5b610a746000610caf565b565b60008060009054906101000a900473ffffffffffffffffffffffffffffffffffffffff16905090565b3373ffffffffffffffffffffffffffffffffffffffff16610abe610a76565b73ffffffffffffffffffffffffffffffffffffffff1614610b14576040517f08c379a0000000000000000000000000000000000000000000000000000000008152600401610b0b906110ba565b60405180910390fd5b7f00000000000000000000000000000000000000000000000000000000000000007f0000000000000000000000000000000000000000000000000000000000000000610b609190611244565b3414610ba1576040517f08c379a0000000000000000000000000000000000000000000000000000000008152600401610b989061115a565b60405180910390fd5b6001600260156101000a81548160ff021916908315150217905550565b3373ffffffffffffffffffffffffffffffffffffffff16610bdd610a76565b73ffffffffffffffffffffffffffffffffffffffff1614610c33576040517f08c379a0000000000000000000000000000000000000000000000000000000008152600401610c2a906110ba565b60405180910390fd5b600073ffffffffffffffffffffffffffffffffffffffff168173ffffffffffffffffffffffffffffffffffffffff161415610ca3576040517f08c379a0000000000000000000000000000000000000000000000000000000008152600401610c9a906110fa565b60405180910390fd5b610cac81610caf565b50565b60008060009054906101000a900473ffffffffffffffffffffffffffffffffffffffff169050816000806101000a81548173ffffffffffffffffffffffffffffffffffffffff021916908373ffffffffffffffffffffffffffffffffffffffff1602179055508173ffffffffffffffffffffffffffffffffffffffff168173ffffffffffffffffffffffffffffffffffffffff167f8be0079c531659141344cd1fd0a4f28419497f9722a3daafe3b4186f6b6457e060405160405180910390a35050565b600081359050610d828161157f565b92915050565b600081519050610d9781611596565b92915050565b600081519050610dac816115ad565b92915050565b600060208284031215610dc857610dc761131f565b5b6000610dd684828501610d73565b91505092915050565b600060208284031215610df557610df461131f565b5b6000610e0384828501610d88565b91505092915050565b600060208284031215610e2257610e2161131f565b5b6000610e3084828501610d9d565b91505092915050565b610e428161129e565b82525050565b610e51816112b0565b82525050565b610e60816112bc565b82525050565b6000610e73601883611233565b9150610e7e82611324565b602082019050919050565b6000610e96602083611233565b9150610ea18261134d565b602082019050919050565b6000610eb9602483611233565b9150610ec482611376565b604082019050919050565b6000610edc602c83611233565b9150610ee7826113c5565b604082019050919050565b6000610eff601583611233565b9150610f0a82611414565b602082019050919050565b6000610f22601583611233565b9150610f2d8261143d565b602082019050919050565b6000610f45601d83611233565b9150610f5082611466565b602082019050919050565b6000610f68601b83611233565b9150610f738261148f565b602082019050919050565b6000610f8b601183611233565b9150610f96826114b8565b602082019050919050565b6000610fae602e83611233565b9150610fb9826114e1565b604082019050919050565b6000610fd1602383611233565b9150610fdc82611530565b604082019050919050565b610ff0816112e6565b82525050565b600060208201905061100b6000830184610e39565b92915050565b60006040820190506110266000830185610e39565b6110336020830184610fe7565b9392505050565b6000602082019050818103600083015261105381610e66565b9050919050565b6000602082019050818103600083015261107381610e89565b9050919050565b6000602082019050818103600083015261109381610eac565b9050919050565b600060208201905081810360008301526110b381610ecf565b9050919050565b600060208201905081810360008301526110d381610ef2565b9050919050565b600060208201905081810360008301526110f381610f15565b9050919050565b6000602082019050818103600083015261111381610f38565b9050919050565b6000602082019050818103600083015261113381610f5b565b9050919050565b6000602082019050818103600083015261115381610f7e565b9050919050565b6000602082019050818103600083015261117381610fa1565b9050919050565b6000602082019050818103600083015261119381610fc4565b9050919050565b60006020820190506111af6000830184610fe7565b92915050565b6000610100820190506111cb600083018b610fe7565b6111d8602083018a610fe7565b6111e56040830189610fe7565b6111f26060830188610fe7565b6111ff6080830187610e48565b61120c60a0830186610e48565b61121960c0830185610e57565b61122660e0830184610e39565b9998505050505050505050565b600082825260208201905092915050565b600061124f826112e6565b915061125a836112e6565b9250817fffffffffffffffffffffffffffffffffffffffffffffffffffffffffffffffff0483118215151615611293576112926112f0565b5b828202905092915050565b60006112a9826112c6565b9050919050565b60008115159050919050565b6000819050919050565b600073ffffffffffffffffffffffffffffffffffffffff82169050919050565b6000819050919050565b7f4e487b7100000000000000000000000000000000000000000000000000000000600052601160045260246000fd5b600080fd5b7f496e636f72726563742070757263686173652070726963650000000000000000600082015250565b7f4f7074696f6e206973206e6f7420636f6c6c61746572616c697a656420796574600082015250565b7f546f6b656e732068617665206e6f74206265656e207472616e7366657272656460008201527f2079657400000000000000000000000000000000000000000000000000000000602082015250565b7f596f752061726520756e617574686f72697a656420666f7220746865206f707460008201527f696f6e20636f6e74726163740000000000000000000000000000000000000000602082015250565b7f596f7520617265206e6f7420746865204f776e65720000000000000000000000600082015250565b7f4f7074696f6e20697320756e7075726368617365640000000000000000000000600082015250565b7f4e6577206f776e657220697320746865207a65726f2061646472657373000000600082015250565b7f4f7074696f6e20697320616c7265616479207075726368617365640000000000600082015250565b7f4f7074696f6e2069732045787069726564000000000000000000000000000000600082015250565b7f4e6f742074686520726967687420616d6f756e74206f6620636f6c6c6174657260008201527f616c207472616e73666572726564000000000000000000000000000000000000602082015250565b7f4f7074696f6e20636f6e747261637420686173206e6f7420657870697265642060008201527f7965740000000000000000000000000000000000000000000000000000000000602082015250565b6115888161129e565b811461159357600080fd5b50565b61159f816112b0565b81146115aa57600080fd5b50565b6115b6816112e6565b81146115c157600080fd5b5056fea264697066735822122011d42a063505d9e77f0d01fa7b56bae4f6e73b821fa58f51627641857c73c07764736f6c63430008060033",
  "immutableReferences": {
    "430": [
      {
        "length": 32,
        "start": 1074
      },
      {
        "length": 32,
        "start": 1412
      },
      {
        "length": 32,
        "start": 1650
      },
      {
        "length": 32,
        "start": 2325
      },
      {
        "length": 32,
        "start": 2871
      }
    ],
    "432": [
      {
        "length": 32,
        "start": 1617
      },
      {
        "length": 32,
        "start": 2358
      },
      {
        "length": 32,
        "start": 2838
      }
    ],
    "434": [
      {
        "length": 32,
        "start": 2013
      },
      {
        "length": 32,
        "start": 2391
      }
    ],
    "436": [
      {
        "length": 32,
        "start": 553
      },
      {
        "length": 32,
        "start": 976
      },
      {
        "length": 32,
        "start": 2424
      }
    ],
    "438": [
      {
        "length": 32,
        "start": 2492
      }
    ]
  },
  "source": "// SPDX-License-Identifier: UNLICENSED\r\n// This contract is the sample contract for the collateralized Put option (American style) with physical settlement\r\n// for any ERC20 Token. The contract has not gone through the security audit, therefore use at your own risk.\r\n\r\npragma solidity > 0.8.0 <0.9.0;\r\n\r\nimport \"./Ownable.sol\";\r\n\r\nabstract contract ERC20Token {\r\n    \r\n    function balanceOf(address account) external view returns (uint256){\r\n    }\r\n    function transfer(address recipient, uint256 amount) external returns (bool){\r\n    }\r\n    \r\n} \r\n\r\ncontract PutOption is Ownable {\r\n    \r\n    // Address of the Buyer of the Put option\r\n    address private buyer;\r\n    // Quantity of the tokens at stake in the option contract\r\n    uint private immutable quantity; \r\n    // Strike price of the put option in Wei/Token\r\n    uint private immutable strikePrice;\r\n    // Purchase price of the put option contract in Wei\r\n    uint private immutable purchasePrice;\r\n    // Expiry time of the put option\r\n    uint private immutable expiryTime;\r\n    // Contract Address of the ERC20 Token (can be any ERC20 token, for the purposes of testing CleverWizardToken in the folder can be used)\r\n    address private immutable tokenContractAddress;\r\n    // ERC20 Token's instance in the contract\r\n    ERC20Token private Token;\r\n    // Boolean for whether the contract has been purchased by any buyer or not\r\n    bool private wasPurchased; \r\n    // Boolean for whether the contract is collateralized by the seller or not\r\n    bool private wasCollateralized;\r\n    //Whether option is Call or Put\r\n    bytes32 private optionType;\r\n\r\n\r\n    event optionPurchased(address indexed _from, address indexed _by, uint256 _time);\r\n    event optionExecuted(address indexed _by, uint256 _time);\r\n    \r\n    \r\n    constructor(uint _quantity, uint _strikePrice, uint _purchasePrice, uint _expiryTime, address _tokenContractAddress) Ownable() {\r\n        quantity = _quantity;\r\n        strikePrice = _strikePrice;\r\n        purchasePrice = _purchasePrice;\r\n        expiryTime = _expiryTime;\r\n        tokenContractAddress = _tokenContractAddress;\r\n        Token = ERC20Token(_tokenContractAddress);\r\n        wasPurchased = false;\r\n        wasCollateralized = false;\r\n        optionType = \"put\";\r\n    }\r\n    \r\n    // Returns all the terms of the put option contract\r\n    function getOptionConditions() public view returns(uint _quantity, uint _strikePrice, uint _purchasePrice, uint _expiryTime, bool _wasCollateralized, bool _wasPurchased, bytes32 _optionType, address _tokenContractAddress){\r\n        return (quantity, strikePrice, purchasePrice, expiryTime, wasCollateralized, wasPurchased, optionType, tokenContractAddress);\r\n    }\r\n    \r\n    //Allows the seller of the put contract to collateralize the option\r\n    function collateralize() public payable onlyOwner {\r\n        require(msg.value == quantity * strikePrice, \"Not the right amount of collateral transferred\");\r\n        wasCollateralized = true;\r\n    }\r\n    \r\n    // Allows the Buyer of the contract to buy the option contract.\r\n    // For convenience the buyer can be from any address. If needed, the function can be modified to serve a specific buyer's address.\r\n    // Note: The buyer cannot buy the option contract unless the Seller of the contract first collaterlizes it with ETH.\r\n    function purchase() public payable {\r\n        require(!wasPurchased, \"Option is already purchased\");\r\n        require(wasCollateralized == true, \"Option is not collateralized yet\");\r\n        require(msg.value == purchasePrice, \"Incorrect purchase price\");\r\n        buyer = msg.sender;\r\n        wasPurchased = true;\r\n        emit optionPurchased(owner(), msg.sender, block.timestamp);\r\n    }\r\n    \r\n    // Allows the buyer to execute the option contract at any time before the Option contract.\r\n    function execute() public {\r\n        require(wasPurchased, \"Option is unpurchased\");\r\n        require(msg.sender == buyer, \"You are unauthorized for the option contract\");   \r\n        require(block.timestamp < expiryTime, \"Option is Expired\");\r\n        require(Token.balanceOf(address(this)) == quantity, \"Tokens have not been transferred yet\");\r\n        Token.transfer(owner(), quantity);\r\n        payable(buyer).transfer(quantity*strikePrice);\r\n        emit optionExecuted(msg.sender, block.timestamp);\r\n        selfdestruct(payable(owner()));\r\n    }\r\n    \r\n    //Refunds and sends the funds back to the Seller of the contract.\r\n    //Can not refund if it was purchased before the contract has expired\r\n    function refund() public onlyOwner {\r\n        if(wasPurchased) {\r\n            require(block.timestamp > expiryTime, \"Option contract has not expired yet\");\r\n        }\r\n        wasCollateralized = false;\r\n        selfdestruct(payable(owner()));\r\n    }\r\n\r\n    function getBuyer() public view returns (address) {\r\n        return buyer;\r\n    }\r\n\r\n     //Contract can accept deposits\r\n    receive() external payable {}\r\n    fallback() external payable {}\r\n}",
  "sourcePath": "C:/Users/abyla/nodeenvs/Options/contracts/PutOption.sol",
  "compiler": {
    "name": "solc",
    "version": "0.8.6+commit.11564f7e.Emscripten.clang"
  },
  "schemaVersion": "3.4.1",
  "updatedAt": "2021-07-13T14:52:32.301Z",
  "devdoc": {
    "kind": "dev",
    "methods": {},
    "version": 1
  },
  "userdoc": {
    "kind": "user",
    "methods": {},
    "version": 1
  }
}